:020000040800F2
:10000000200400209D010008C10F0008690D0008B0
:10001000BD0F00080902000885110008000000005B
:100020000000000000000000000000008510000833
:100030000D02000800000000F10F0008B9100008D0
:10004000B7010008B7010008B7010008B7010008B0
:10005000B7010008B7010008B7010008B7010008A0
:10006000B7010008B7010008B7010008B701000890
:10007000B7010008B7010008B7010008B701000880
:10008000B7010008B7010008B7010008B701000870
:10009000B7010008B7010008B7010008B701000860
:1000A000B7010008B7010008B7010008B701000850
:1000B000B7010008B7010008B7010008B701000840
:1000C000B7010008B7010008B7010008B701000830
:1000D000B7010008B7010008B7010008B701000820
:1000E000B7010008B7010008B7010008B701000810
:1000F000B7010008B7010008B7010008B701000800
:10010000B7010008B7010008B7010008B7010008EF
:10011000B7010008B7010008B7010008B7010008DF
:10012000B7010008B7010008B7010008B7010008CF
:10013000B7010008B7010008B7010008B7010008BF
:10014000B7010008B7010008B7010008B7010008AF
:10015000B7010008B7010008B7010008B70100089F
:10016000B7010008B7010008B7010008B70100088F
:10017000B7010008B7010008B7010008000000003F
:10018000B7010008B7010008DFF80CD000F02AF82A
:100190000048004731150008200400200648804729
:1001A00006480047FEE7FEE7FEE7FEE7FEE7FEE75C
:1001B000FEE7FEE7FEE7FEE73111000889010008CF
:1001C000D2B201E000F8012B491EFBD27047002299
:1001D000F6E710B513460A4604461946FFF7F0FF46
:1001E000204610BD064C074D06E0E06840F00103D4
:1001F00094E8070098471034AC42F6D3FFF7C8FFE5
:10020000F415000814160008FEE70000704700000F
:10021000EFF3108072B600BFFEE70000B0B50446F1
:1002200000F0FCF8054640F20400C2F2000000684D
:10023000611C18BF044400BF00F0F0F8401BA0424E
:10024000FAD3B0BD2DE9F04F83B00F68002F00F056
:10025000D38000F138424FEAB222019241F6000207
:10026000C4F600020723002600244FF00108904244
:1002700008BF0623009309E00F68043437FA08F238
:1002800008F1010806F1020600F0B680A8F1010AA3
:10029000012202FA0AFB17EA0B0CEDD04F68122F6D
:1002A00019D80122BA4012F0061F14D08268032325
:1002B000D1F80CE003FA06F922EA09020EFA06F573
:1002C0002A4382604268C7F3001522EA0B0205FA4E
:1002D0000AF52A43426007F00302032A08D1C26AE2
:1002E000C7F3C00522EA0B0205FA0AF52A43C262E7
:1002F000C268032303FA06F522EA05038A686FEA57
:10030000050EB2401A4347F01003122BC26011D100
:100310006FF0030202EA5A02024404F01C070F23A2
:10032000D2F8209003FA07F50B6929EA0505BB40CE
:100330002B43136202684B6802EA0E0203F00307C4
:10034000B7403A43DB00026096D541F26003C4F245
:1003500002031A6840F2004E42F001021A601A6865
:10036000C4F2010E02F001020292029A2AF0030284
:100370004FF6084A7244CFF6FF7A52F80A3004F07A
:100380000C070F25BD4023EA0509019B009D062BA4
:1003900038BF1D4605FA07F747EA090342F80A3055
:1003A000DEF800204B6842EA0C07DD0358BF22EA62
:1003B0000C07CEF80070DEF804209D0342EA0C071B
:1003C00058BF22EA0C07CEF80470DEF80820DD02E0
:1003D00042EA0C0740F20C4558BF22EA0C07CEF85F
:1003E0000870C4F201052A689B0242EA0C0758BF54
:1003F00022EA0C072F603FE703B000F000B830BCE2
:10040000BDE8C08F0069084018BF01207047000098
:100410001823002A08BF2823C150704740F21C004F
:10042000C2F200000068704740F2040040F21C0174
:10043000C2F20000C2F2000100680A6810440860BD
:100440007047000080B5032000F062F8002000F043
:1004500009F800281CBF012080BD00F02FF8002003
:1004600080BD0000B0B540F20401C2F2000109688D
:1004700001B3044640F20000C2F200004FF47A7269
:100480000068B2FBF1F1B0FBF1F000F069FC0F2C59
:100490004FF001050CD858B94FF0FF30214600222B
:1004A000002500F025F840F20800C2F200000460C8
:1004B0002846B0BD01252846B0BD000082B041F2FB
:1004C0005800C4F20200816841F001018160816836
:1004D00001F0010101910199016841F08051016031
:1004E000006800F080500090009802B07047000053
:1004F00070B514460D46064600F0F0FF2946224628
:1005000000F060FD0146304600F0F0FF70BD0000D5
:1005100080B500F0FDFF80BD47F20001C4F200018C
:100520000A68B0F5007F02F4C06026D1B0F5007F04
:1005300021D00868012262F34A20086040F20000DE
:10054000C2F200000068322358434DF68363C4F2C0
:100550001B33A0FB030302EB934000BF4B69421E19
:10056000824203D213F480601046F7D148694005F7
:1005700044BF0320704700207047B0F5806FFAD069
:100580000868022262F34A200860002070470000D9
:1005900047F20000C4F20000006800F4C060704739
:1005A0002DE9F04381B000287AD042F20008C4F26D
:1005B00002080446D8F800000D4600F00700884203
:1005C0000CD2D8F8000020F007002843C8F800003B
:1005D000D8F8000000F00700A84261D1207841F26D
:1005E0000809C007C4F2020950D12068810707D565
:1005F000D9F80010A26821F0F0011143C9F80010E9
:10060000D8F8001001F00701A9420CD9D8F8001061
:1006100021F007012943C8F80010D8F8001001F0B4
:100620000701A9423CD1410707D5D9F80010E2687B
:1006300021F4E0611143C9F80010000708D5D9F88A
:100640000000216920F4605040EAC100C9F80000B0
:1006500000F056F8D9F8001041F2B252C1F303117C
:10066000C0F60002515C40F2000201F01F0120FAC6
:1006700001F140F20800C2F200000068C2F200027C
:100680001160FFF7EFFE01B0BDE8F083606858B17C
:1006900002282BD003282ED159F8081C890107D431
:1006A000012001B0BDE8F08359F8081C8907F7D58F
:1006B000D9F8001021F003010843C9F80000FFF742
:1006C000ADFE064641F28837D9F80000616800F0B7
:1006D0000C00B0EB810F3FF488AFFFF79FFE801B4B
:1006E000B842F1D9032001B0BDE8F08359F8081CE5
:1006F0008903D5D5DCE759F8081C4905D0D5D7E7DB
:1007000041F20C01C4F2020151F8040C10F00C0289
:10071000086805D00C2A40D100F0030001283CD124
:1007200051F80C0C000703D4D1F88800000A02E04D
:1007300051F80C0C000941F2C45300F00F00C0F650
:10074000000353F82030002A184618BF00200C2A56
:1007500018BF7047086800F00300022806D003287D
:1007600004BF41F20023C0F27A0303E042F20043E7
:10077000C0F2F40308680A68C0F30210C2F306224C
:10078000096801305A43B2FBF0F0C1F34161022223
:1007900002EB4101B0FBF1F07047042A07D0082AB0
:1007A0000BD141F200200023C0F27A00CFE742F2E1
:1007B00000400023C0F2F400C9E700200023C6E790
:1007C0002DE9F04381B0002800F0268241F20006B6
:1007D0000446C4F20206B068F168227800F00C0901
:1007E000D00601F003081DD42078C00700F0EF8088
:1007F000B9F1080F45D0B9F10C0F08BFB8F1030FDC
:100800003FD06568B5F5A02F00F0BC80B5F5803FFE
:1008100000F0BC80306820F480303060306820F414
:100820008020B6E0B9F1000F1CD0B9F10C0F08BF61
:10083000B8F1010F16D0A1693068002978D040F0D6
:1008400001003060FFF7EAFD054600BF3068800711
:1008500000F18080FFF7E2FD401B02284FF003000B
:10086000F4D922E23068800703D5A069002800F09F
:10087000D381206A316809070CD4D6F8941009098D
:1008800009E03068800340F1A2806068002840F0F1
:100890009E80C1E1316801F0F001884216D900F074
:1008A000A9FB002840F0B881306840F008003060B3
:1008B0003068D4E9072120F0F00008433060706808
:1008C00020F47F4040EA0220706013E03168B9F103
:1008D000000F41F008013160316821F0F00141EA78
:1008E000000131607168E26921F47F4141EA02212F
:1008F000716041D0FFF704FFB16841F2B252C1F319
:100900000311C0F60002515C40F2000201F01F0129
:1009100020FA01F140F20800C2F200000068C2F2C1
:1009200000021160FFF79EFD002840F0BE815BE7EA
:1009300020F001003060FFF771FD05463068800748
:100940007FF552AFFFF76AFD401B02284FF003000E
:10095000F4D9AAE1306840F0080030603068D4E98A
:10096000072120F0F00008433060706820F47F40D9
:1009700040EA0220706037E700F03CFB002840F0BE
:100980004B81B7E7306840F480203060306840F435
:1009900080303060FFF742FD002D054614D000BFC7
:1009A0003068800313D4FFF739FD401B64284FF0F3
:1009B0000300F5D979E100BFFFF730FD401B642843
:1009C0004FF0030000F2718130688003F4D4207886
:1009D00080072CD5B9F1040F1BD0B9F10C0F08BF5B
:1009E000B8F1020F15D0E1683068002900F04C81A1
:1009F00040F480703060FFF711FD05463068400517
:100A00000ED4FFF70BFD401B02284FF00300F5D971
:100A10004BE13068400503D5E068002800F0FC8019
:100A20007068216920F0F85040EA01607060207819
:100A300000075ED42078400775D4A06A002800F033
:100A40003481022840F0B980F068E16A00F00302C6
:100A50008A4240F0D780226B6FF00F0300F07001E4
:100A600003EB0212914240F0CD80616B00F4FE4234
:100A7000B2EB012F40F0C680A16B00F400320739C1
:100A800018BF01218A4240F0BD80E26B0023CFF6FF
:100A9000E07303EA025200F4C001A2F50012914291
:100AA00040F0B080216C4FF07E4202EA016100F01C
:100AB000C06001F17E41884240F0A480306880012E
:100AC00000F14981306840F080703060F06840F09B
:100AD0008070F060FFF7A2FC04463068800100F1EE
:100AE0003A81FFF79BFC001B02284FF00300F4D96A
:100AF000DBE06169D6F8940000294AD040F001009B
:100B0000C6F89400FFF78AFC054600BFD6F89400AB
:100B100080078FD4FFF782FC401B0228F6D9032000
:100B200001B0BDE8F083B06D10F0805808D1B06D11
:100B300040F08050B065B06D00F08050009000989B
:100B400047F20007C4F200073868C00511D43868BE
:100B500040F480703860FFF761FC05463868C005D6
:100B600007D4FFF75BFC401B02284FF00300F5D9C8
:100B70009BE0A568052D53D0012D57D0D6F89000E5
:100B800020F00100C6F89000D6F8900020F0040094
:100B900050E020F00100C6F89400FFF73FFC054646
:100BA000D6F8940080077FF545AFFFF737FC401B70
:100BB00002284FF00300F3D977E0B9F10C0F2BD0E6
:100BC000306820F080703060306810F0205F03D112
:100BD000F06820F00300F060F0684FF6FF71CFF688
:100BE000EE610840F060FFF719FC044630688001B0
:100BF00040F1B180FFF712FC001B03284FF0030007
:100C0000F4D352E0B9F10C0F06D0306840015CBF5C
:100C100030685FEAC0004BD5012001B0BDE8F08329
:100C2000D6F8900040F00400C6F89000D6F8900086
:100C300040F00100C6F89000FFF7F0FB002D0546DC
:100C400041F2883713D000BFD6F89000800712D445
:100C5000FFF7E4FB401BB8424FF00300F4D924E057
:100C6000FFF7DCFB401BB8424FF003001DD8D6F85D
:100C700090008007F4D4B8F1000F7FF4DEAEB06DC1
:100C800020F08050B065D8E620F480703060FFF727
:100C9000C5FB0546306840057FF5C9AEFFF7BEFBD2
:100CA000401B02284FF00300F4D901B0BDE8F083E7
:100CB000306820F080703060FFF7B0FB0546306888
:100CC000800107D5FFF7AAFB401B02284FF0030065
:100CD000F5D9EAE7F06848F28C01CFF69D1104F1EE
:100CE0002C0700EA010C8ECF6FF00F00D4E90F54EF
:100CF00000EB02100022CFF6E07241EA0C0102EA9A
:100D000005524FF07E450843A2F5001205EA04653E
:100D1000002440EA032005F17E45CFF6FE7410431F
:100D200004EA473728433843F060306840F0807069
:100D30003060F06840F08070F060FFF76FFB0446B1
:100D40003068800107D4FFF769FB001B02284FF0D1
:100D50000300F5D9A9E7002001B0BDE8F083000049
:100D600080B500F091F980BDFEE7000010B540F6B7
:100D70000004C4F6000420464FF480510022FFF71F
:100D800047FB20464FF480610122FFF741FB2046DC
:100D90004FF480610022FFF73BFB20464FF4805167
:100DA0000122FFF735FB10BD10B540F60004C4F674
:100DB000000420464FF480510122FFF729FB204612
:100DC0004FF480610122FFF723FB20464FF480613E
:100DD0000022FFF71DFB10BDF0B581B040F6000505
:100DE00004460026C4F60005002700BF28464FF43D
:100DF00080610122FFF70CFB28464FF48051FFF77A
:100E000001FB002818BF012040EA460628464FF49F
:100E100080610022FFF7FCFA072F07F10107E5D3F5
:100E200014B1FFF7A3FF01E0FFF7BEFFF0B201B07E
:100E3000F0BD000070B540F6000504460026C4F67B
:100E4000000505E06400072E06F1010628BF70BD0D
:100E5000E0B2C20928464FF48051FFF7D9FA28467C
:100E60004FF480610122FFF7D3FA28464FF48061E6
:100E70000022FFF7CDFA072EE4D128464FF4805127
:100E80000122FFF7C5FADDE710B540F60004C4F60D
:100E9000000420464FF480510122FFF7B9FA2046A2
:100EA0004FF480610122FFF7B3FA20464FF48051DE
:100EB0000022FFF7ADFA20464FF480610022FFF7D1
:100EC000A7FA10BD10B540F60004C4F60004204691
:100ED0004FF480510022FFF79BFA20464FF48061C7
:100EE0000122FFF795FA20464FF480510122FFF7C7
:100EF0008FFA10BDB0B540F60004C4F600042046D9
:100F00004FF480510122FFF783FA20464FF48061AD
:100F10000122FFF77DFA20464FF48051FFF772FA65
:100F20000546002820464FF480614FF0000218BFAC
:100F30000125FFF76DFA2846B0BD000070B586B0F8
:100F4000002541F24C000595CDE90355CDE9015549
:100F5000C4F20200016840F6000441F08001016023
:100F60000168C4F6000401F0800100910099016855
:100F7000002241F00101016001684FF4A05601F028
:100F8000010100910099016841F0040101600068CD
:100F90004FF4A05100F00400009000982046FFF7A5
:100FA00037FA11200196CDE902050220049001A92B
:100FB0002046FFF747F906B070BD0000FEE70000CD
:100FC000FEE7000000F0070080F00703042B28BFB5
:100FD00004234FF0FF3C03380CFA03F338BF002022
:100FE000994381400CFA00F022EA00000843704760
:100FF00070470000B0B582B041F25805C4F2020556
:1010000029680446C90015D4286840F0805028603B
:10101000286800F0805001900198FFF7B9FA29681C
:1010200021F080512960B0F5007F08D0802C0DD9C7
:10103000032015E0FFF7ACFAB0F5007FF6D1812C64
:101040000DD30120A02C88BF022009E0A4F170007C
:10105000B0FA80F04009802C08BF022000E0002098
:1010600042F20001C4F202010A6822F007020244BF
:101070000A60096801F00701081A18BF012002B0D0
:10108000B0BD000070470000B0B501380024B4EBDB
:10109000106F1CBF0120B0BD4EF21005CEF200054E
:1010A00068604FF0FF300F2100F020FA0720AC609D
:1010B00028602046B0BD000080B5FFF7B5F980BDBF
:1010C000B0B596B005AC20464421FFF780F810205B
:1010D0000025059001206021CDE90B050D9102212D
:1010E000CDE90F101190282012900720CDE91301AF
:1010F00020460495CDE90255CDE900551591FFF73D
:101100005FFB98B90F2000900320CDE901056846E8
:101110000421CDE90355FFF743FA38B94FF40070C5
:10112000FFF7FAF9002804BF16B0B0BDFFF770F85A
:101130004EF68850CEF2000001684FF0000C41F4EA
:101140007001016041F20001C4F202010A6842F03C
:1011500001020A60C1F808C00B684FF6FF72CEF6B4
:10116000F6221A400A604FF48052CA600A6822F4DC
:1011700080220A60C1F818C04FF0006140F8801C5E
:1011800070470000FEE7000080B540F20720012113
:1011900000F07EF94FF40270012100F079F99620F9
:1011A000002100F075F99720FD2100F071F9E3208E
:1011B000002100F06DF9E420042100F069F9E52038
:1011C000022100F065F9E620012100F061F9E72035
:1011D000032100F05DF9F520022100F059F9D92032
:1011E000052100F055F9DB20CE2100F051F9DC207B
:1011F000032100F04DF9DD20F82100F049F99F208E
:10120000002100F045F9A3203C2100F041F9B7206E
:10121000002100F03DF9BB203C2100F039F9B2205B
:10122000092100F035F9CA20092100F031F94FF405
:10123000CC70012100F02CF94FF4D870172100F088
:1012400027F940F2AD10002100F022F9FF2005211E
:1012500000F01EF94FF48070052100F019F940F2FA
:101260009910052100F014F94FF4D3701B2100F000
:101270000FF94FF4D6703E2100F00AF940F2A710A2
:101280001F2100F005F93020002100F001F91120A4
:10129000102100F0FDF84FF48570302100F0F8F8CF
:1012A0003F20462100F0F4F83120FF2100F0F0F853
:1012B0004020632100F0ECF82E20012100F0E8F836
:1012C0001B20092100F0E4F83E20312100F0E0F875
:1012D0001420242100F0DCF8002080BDB0B50446C5
:1012E000050AFFF7D1FD5220FFF7A4FDFFF702FE2C
:1012F0002846FFF79FFDFFF7FDFDE0B2FFF79AFDDF
:10130000FFF7F8FDFFF7C0FD5320FFF793FDFFF750
:10131000F1FD0020FFF760FD0446FFF7D3FD2046F6
:10132000B0BD0000B0B50446050AFFF7ADFD522080
:10133000FFF780FDFFF7DEFD2846FFF77BFDFFF797
:10134000D9FDE0B2FFF776FDFFF7D4FDFFF79CFD76
:101350005320FFF76FFDFFF7CDFD0120FFF73CFDA8
:101360000020FFF739FD0446FFF7ACFD2046B0BD75
:1013700080B50020FFF7B2FF80BD000010B52DED55
:10138000028B04461420FFF7A9FF4020002100F043
:101390007FF84120642100F07BF8072C28BF072448
:1013A00044F040013F2000F073F83820012100F0A4
:1013B0006FF800BF4F20FFF791FF00F038002028A2
:1013C000F8D15020FFF7AEFF00EE100A15200721DC
:1013D000B8EE408A00F05CF89FED1C0A04F00700AC
:1013E000072828EE000A27D8DFE800F004090E13CA
:1013F0002218261DB3EE041A80EE010A1CE0B2EE9C
:10140000041A80EE010A17E0B1EE041A80EE010A18
:1014100012E0B0EE041A80EE010A0DE0B7EE041AF5
:1014200080EE010A08E0B3EE041A80EE010A03E040
:101430009FED071A80EE010A9FED061A20EE010AC1
:1014400080EE010ABDEC028B10BD00BF0AD7A33E9F
:10145000AE47E13F0000C84210B500BF4D20FFF786
:101460003DFFC007FAD01820012100F011F800BF9D
:101470004F20FFF733FF4007FAD56220FFF72EFF1A
:1014800004461520072100F003F8204610BD000097
:10149000B0B50C460546FFF7F7FC5220FFF7CAFC33
:1014A000FFF728FD18B1FFF70DFD0120B0BD280A98
:1014B000FFF7C0FCFFF71EFDE8B2FFF7BBFCFFF72C
:1014C00019FD2046FFF7B6FCFFF714FD044600287F
:1014D00018BF0124FFF7F6FC2046B0BD4EF60C50B5
:1014E000CEF200000068C0F3022070474EF614539D
:1014F00000F00F02CEF2000309011A4400F160432C
:10150000B0F1FF3FC8BF03F564421170704700009F
:101510004EF60C51CEF200010A684FF6FF031A4056
:1015200060F30A2242F0806040F0FD70086070476E
:10153000FEF788FFFFF7C4FDFFF700FD6420FEF70C
:101540006DFEFFF715FF40F21801C2F200010870AE
:101550006420FEF763FEFFF717FE40F21001C2F2AF
:10156000000108804FF47A70FEF758FE40F219042B
:1015700040F21405C2F20004C2F20005FFF76CFF4E
:1015800020700120FEF74AFE0520FFF7F7FE85EDEB
:10159000000AF3E702E008C8121F08C1002AFAD1C6
:1015A00070477047002001E001C1121F002AFBD1E3
:1015B000704700000000000000000102030406075D
:1015C00008090000A0860100400D0300801A0600F3
:1015D00000350C0040420F0080841E0000093D00D1
:1015E00000127A000024F40000366E010048E80181
:1015F000006CDC021816000800000020100000003B
:10160000941500082816000810000020100400009F
:10161000A41500080000000000093D0001000000C2
:081620001000000000000000B2
:040000050800018965
:00000001FF
